:100000000C9462000C948A000C948A000C948A0070
:100010000C948A000C948A000C948A000C948A0038
:100020000C9472040C948A000C948A000C948A003C
:100030000C948A000C948A000C948A000C948A0018
:100040000C9428040C948A000C94F6030C94D003AE
:100050000C948A000C948A000C948A000C948A00F8
:100060000C948A000C948A00000000080002010031
:100070000003040700000000000000000000000072
:10008000250028002B0000000000240027002A0083
:1000900000000000230026002900040404040404D6
:1000A0000404020202020202030303030303010227
:1000B00004081020408001020408102001020408F6
:1000C0001020250511241FBECFEFD8E0DEBFCDBF25
:1000D00023E0AAEDB1E001C01D92A63DB207E1F711
:1000E00011E0A0E0B1E0EEE3FAE102C005900D926C
:1000F000AA3DB107D9F710E0C2E6D0E004C02197CD
:10010000FE010E94170DC136D107C9F70E9467058D
:100110000C941D0D0C940000A3EAB2E011968C9390
:10012000119790E0FC01E255FF4FE4911496EC9397
:100130001497FC01E656FF4FE491F0E0EE0FFF1F2D
:10014000E057FF4F8591949113969C938E9312974D
:1001500008950F931F93CF93DF93E091A303F09142
:10016000A40340910502808510E0481708F064C0A0
:10017000142F11700091040201114FC0842F90E0E0
:10018000880F991FE80FF91F0184F285E02D2CEEEE
:100190003FEF112311F024E130E0C0910202D09131
:1001A00003022C0F3D1FC90163E470E00E94030DA0
:1001B000E617F70760F0C90168E270E00E94030DDE
:1001C0006F5F7F4F81E090E06E177F0710F52C0F77
:1001D0003D1FC90163E470E00E94030DE617F707B5
:1001E00050F0C90168E270E00E94030D6F5F7F4F1D
:1001F0006E177F0760F42C0F3D1FC90163E470E0A8
:100200000E94030DE617F707E8F41FEF15C082E020
:1002100090E090930102809300020F5F009304022C
:1002200080910002909101020817190628F010929F
:1002300004024F5F40930502812FDF91CF911F9100
:100240000F910895C90168E270E00E94030D6F5F8D
:100250007F4F6E177F07C8F283E090E0DACF90E01F
:10026000FC01E255FF4F249186569F4FFC0184917B
:10027000882399F090E0880F991FFC01EA57FF4FFF
:10028000A591B491FC01E458FF4F859194918FB7EB
:10029000F894EC91E22BEC938FBF0895AF92BF924C
:1002A000CF92DF92EF92FF920F931F93CF93DF9342
:1002B0006C017B018B01040F151FEB015E01AE1871
:1002C000BF08C017D10759F06991D601ED91FC9193
:1002D0000190F081E02DC6010995892B79F7C501C0
:1002E000DF91CF911F910F91FF90EF90DF90CF9012
:1002F000BF90AF900895FC01538D448D252F30E0C1
:10030000842F90E0821B930B541710F0CF96089522
:1003100001970895FC01918D828D981761F0A28D4F
:10032000AE0FBF2FB11D5D968C91928D9F5F9F7315
:10033000928F90E008958FEF9FEF0895FC01918DCB
:10034000828D981731F0828DE80FF11D858D90E038
:1003500008958FEF9FEF0895FC01918D228D892FD5
:1003600090E0805C9F4F821B91098F7399270895BD
:1003700086E092E00E94AC0121E0892B09F420E0A4
:10038000822F089580E090E0892B29F00E94B80127
:1003900081110C9400000895FC01A48DA80FB92FC1
:1003A000B11DA35ABF4F2C91848D90E001968F739D
:1003B0009927848FA689B7892C93A089B1898C91BC
:1003C000837080648C93938D848D981306C002880B
:1003D000F389E02D80818F7D80830895EF92FF92D5
:1003E0000F931F93CF93DF93EC0181E0888F9B8D58
:1003F0008C8D98131AC0E889F989808185FF15C012
:100400009FB7F894EE89FF896083E889F989808134
:100410008370806480839FBF81E090E0DF91CF9103
:100420001F910F91FF90EF900895F62E0B8D10E025
:100430000F5F1F4F0F731127E02E8C8D8E110CC094
:100440000FB607FCFACFE889F989808185FFF5CFDF
:10045000CE010E94CC01F1CFEB8DEC0FFD2FF11DF1
:10046000E35AFF4FF0829FB7F8940B8FEA89FB891C
:1004700080818062CFCFCF93DF93EC01888D88237A
:10048000B9F0AA89BB89E889F9898C9185FD03C0F7
:10049000808186FD0DC00FB607FCF7CF8C9185FFDC
:1004A000F2CF808185FFEDCFCE010E94CC01E9CF54
:1004B000DF91CF910895833081F028F4813099F055
:1004C0008230A9F008958730A9F08830C9F08430CF
:1004D000B1F4809180008F7D03C0809180008F7780
:1004E00080938000089584B58F7784BD089584B586
:1004F0008F7DFBCF8091B0008F778093B0000895FF
:100500008091B0008F7DF9CFCF93DF93282F30E01B
:10051000F901E859FF4F8491F901E255FF4FD49159
:10052000F901E656FF4FC491CC23A1F081110E943E
:100530005B02EC2FF0E0EE0FFF1FE057FF4FA5919D
:10054000B491EC91ED2381E090E009F480E0DF913B
:10055000CF91089580E090E0FACF1F93CF93DF937F
:10056000282F30E0F901E859FF4F8491F901E25555
:10057000FF4FD491F901E656FF4FC491CC23A9F067
:10058000162F81110E945B02EC2FF0E0EE0FFF1F8F
:10059000E458FF4FA591B4918FB7F894EC911111E5
:1005A00008C0D095DE23DC938FBFDF91CF911F91E0
:1005B0000895DE2BF8CF3FB7F8948091DB0190913E
:1005C000DC01A091DD01B091DE0126B5A89B05C03C
:1005D0002F3F19F00196A11DB11D3FBFBA2FA92FC2
:1005E000982F8827BC01CD01620F711D811D911DBF
:1005F00042E0660F771F881F991F4A95D1F708952B
:100600008F929F92AF92BF92CF92DF92EF92FF9222
:100610004B015C010E94DB026B017C010E94DB024A
:100620006C197D098E099F09683E7340810591050B
:10063000A8F321E0821A9108A108B10888EEC80E3B
:1006400083E0D81EE11CF11C81149104A104B104C3
:1006500029F7FF90EF90DF90CF90BF90AF909F90E1
:100660008F9008957F928F929F92AF92BF92CF9278
:10067000DF92EF92FF920F931F93CF93DF93782E29
:10068000EA01E091A303F091A4033F968B010C5E75
:100690001F4F43E4C42ED12CC801B6010E94030DA4
:1006A0005B0158E2E52EF12CC801B7010E94030D51
:1006B0008B010F5F1F4F6497CE01B6010E94030D9F
:1006C0004B01CE01B7010E94030DEB01219624518D
:1006D0003109C901B6010E94030D6B01C901B701BF
:1006E0000E94030D6F5F7F4F20E030E0A901A0E082
:1006F000808191818A159B0570F10817190758F1BF
:10070000828193818815990518F1C817D90728F1B6
:10071000220F331F441F551F21603496AF5F7A129A
:10072000E7CF209397033093980340939903509316
:100730009A0381E0DF91CF911F910F91FF90EF908D
:10074000DF90CF90BF90AF909F908F907F90089553
:100750008C159D0510F480E0EDCF68177907D8F36C
:10076000220F331F441F551FD8CFFC0101900020DA
:10077000E9F73197AF01481B590BBC0186E092E0C5
:100780000C944E01CF93DF930E94B503EC0182E1FC
:1007900091E00E94B5038C0F9D1FDF91CF910895CA
:1007A0001F920F920FB60F9211242F933F934F93E6
:1007B0005F936F937F938F939F93AF93BF93EF93C9
:1007C000FF9386E092E00E94CC01FF91EF91BF91F0
:1007D000AF919F918F917F916F915F914F913F91D9
:1007E0002F910F900FBE0F901F9018951F920F9290
:1007F0000FB60F9211242F938F939F93EF93FF9334
:10080000E0911602F09117028081E0911C02F091B4
:100810001D0282FD1BC0908180911F028F5F8F732C
:1008200020912002821741F0E0911F02F0E0EA5F80
:10083000FD4F958F80931F02FF91EF919F918F91B4
:100840002F910F900FBE0F901F9018958081F4CFBD
:100850001F920F920FB60F9211242F933F938F93F5
:100860009F93AF93BF938091E0019091E101A0919C
:10087000E201B091E3013091DA0123E0230F2D373B
:1008800058F50196A11DB11D2093DA018093E00176
:100890009093E101A093E201B093E3018091DB0129
:1008A0009091DC01A091DD01B091DE010196A11DC6
:1008B000B11D8093DB019093DC01A093DD01B09327
:1008C000DE01BF91AF919F918F913F912F910F903A
:1008D0000FBE0F901F90189526E8230F0296A11DBA
:1008E000B11DD2CF1F920F920FB60F9211242F93EA
:1008F0003F934F935F936F937F938F939F93AF93A8
:10090000BF93EF93FF93E091A502F091A60290812F
:100910008091A70298232091A8023091A9022F3F2D
:10092000320731F02F5F3F4F3093A9022093A80286
:100930008091A302811135C0911116C02091A802A7
:100940003091A9022536310558F01092AA02309351
:10095000AD022093AC0281E08093AB028093A302AE
:100960001092A9021092A8028091B103813041F443
:100970008091B003911161C061E0811161C02D9A35
:10098000FF91EF91BF91AF919F918F917F916F9167
:100990005F914F913F912F910F900FBE0F901F903D
:1009A00018958091A3028130A1F49923E9F2E09196
:1009B000AB028E0F8093AB02F0E0EE0FFF1FED5500
:1009C000FD4F2091A8023091A9023287218782E051
:1009D000C5CF8091A302823039F5911119C0E09101
:1009E000AB0281E0E03720F08093AA0283E0B6CF2B
:1009F0008E0F8093AB02F0E0EE0FFF1FED55FD4F21
:100A00002091A8023091A9023287218781E0A6CFE8
:100A10002091A8023091A9022536310508F4A4CF0F
:100A200083E08093A302A0CF8091A302833009F0DA
:100A30009BCF992309F494CF97CF882321F060E0CE
:100A40000E94AD029DCF2D989BCFCF93DF93E6E020
:100A5000F2E01382128288EE93E0A0E0B0E084839B
:100A60009583A683B78384E091E09183808385ECAE
:100A700090E09587848784EC90E09787868780EC68
:100A800090E0918B808B81EC90E0938B828B82EC59
:100A900090E0958B848B86EC90E0978B868B118E03
:100AA000128E138E148EC3EAD2E0D093CA03C09381
:100AB000C90380E00E948C001092B003D093A4037D
:100AC000C093A3038BE0DF91CF910C948C00CF9364
:100AD000DF93CDB7DEB7A2970FB6F894DEBF0FBE97
:100AE000CDBF789484B5826084BD84B5816084BDB7
:100AF00085B5826085BD85B5816085BD80916E00BC
:100B0000816080936E0010928100809181008260EC
:100B10008093810080918100816080938100809129
:100B200080008160809380008091B1008460809318
:100B3000B1008091B00081608093B00080917A0014
:100B4000846080937A0080917A00826080937A003A
:100B500080917A00816080937A0080917A00806829
:100B600080937A001092C100E0911602F091170272
:100B700082E08083E0911202F09113021082E091F2
:100B80001402F09115029FEC908310921E02E091E6
:100B90001A02F0911B0296E09083E0911802F09106
:100BA0001902908190619083E0911802F0911902EE
:100BB000908198609083E0911802F09119029081E1
:100BC00090689083E0911802F091190290819F7DC6
:100BD00090838093B0008093B10084E68093B3004B
:100BE0008093B4001092B2008091A302833011F47C
:100BF0001092A30284E08093700082E00E942F0193
:100C000083E00E942F0184E00E942F0185E00E9472
:100C10002F0186E00E942F0184E00E942F0188E0CE
:100C20000E942F0189E00E942F011AE0812E912C51
:100C3000A12CB12CCC24CA94DC2C7601B4E02B2E50
:100C4000312C8091A302833009F08EC58091DF01A1
:100C5000811107C085E191E00E94C20381E0809389
:100C6000DF018CEA92E09093FD018093FC0180917A
:100C7000AB028093FE019091AA02992321F0109279
:100C8000AA021092AB029091AA029093FF011092D7
:100C9000F4011092F5011092F6011092F70190E81C
:100CA000909396032091AE023091AF0226583109FD
:100CB0002C35310588F4843071F58091B002909123
:100CC000B1028197489740F48091B2029091B302AB
:100CD0000897089708F459C08091FE018A3108F4FA
:100CE00089C0E091FC01F091FD01208131812A3021
:100CF000310508F05EC01092F801C092F401D09264
:100D0000F501E092F601F092F70181E080939603FD
:100D100082E190E049C08434F9F68091B00290916C
:100D2000B102825491098F97B8F620E332E040E98E
:100D300056E060E372E080E20E943203882361F2B1
:100D4000E091FC01F091FD01EA57FF4F8081918114
:100D50000897089708F68091970390919803A091BF
:100D60009903B0919A038093F4019093F501A093B5
:100D7000F601B093F70180E28093F80187E090E0FC
:100D80009093F1018093F0010FC01092F801C0928E
:100D9000F401D092F501E092F601F092F70181E8BA
:100DA0008093960387E090E090938D0380938C036B
:100DB000CDC022813381245231092A313105D0F44A
:100DC00043E050E060E0412C512C320190E04817A4
:100DD000590708F055C02481358128503109283041
:100DE000310540F4268137812231310598F12032D6
:100DF0003105D8F181E080930502E9E7F3E0F09353
:100E00000302E0930202109204020E94A9008130C2
:100E100009F0F6C0412C512C320110E0E091A303FF
:100E2000F091A403908580910502891708F03FC0D6
:100E30000E94A900082F0E94A90001112EC0813034
:100E400009F0DEC0440C551C661C771C689440F801
:100E50001F5FE4CF2930310568F22131310550F6AA
:100E6000440C551C661C771C06C0440C551C661CA3
:100E7000771C689440F86F5F4E5F5F4F3496A7CF42
:100E80006093F8014092F4015092F5016092F601EE
:100E90007092F70182E190E073CF013009F0B0C0A9
:100EA0008111AEC0440C551C661C771CD1CF812F1C
:100EB00090E090939503809394034092970350920F
:100EC00098036092990370929A03842D8F7390E037
:100ED0009093910380939003920146E03695279575
:100EE0004A95E1F72F71332730938F0320938E03B8
:100EF000920122273071232B31F4805C9F4F909315
:100F000091038093900380E853FC88E880939603D4
:100F1000818592858F3C994028F480919603816069
:100F2000809396038EE090E090938D0380938C03E2
:100F30001093F8014092F4015092F5016092F6018D
:100F40007092F7019093F1018093F0018091F40188
:100F50009091F501A091F601B091F7018F3CF0E37B
:100F60009F07FFEFAF07B10509F0C3C22091EE0163
:100F70003091EF01232B79F42091EC013091ED01B8
:100F8000F901E851FE4F41E340832F5F3F4F30931B
:100F9000ED012093EC01853AFAE59F07FFEFAF07DB
:100FA000B10509F0DAC22091EE013091EF01232B57
:100FB00079F42091EC013091ED01F901E851FE4FF7
:100FC00046E340832F5F3F4F3093ED012093EC01C8
:100FD0008F3C9043AF4FB10509F0DBC28091EE0129
:100FE0009091EF01019709F0D4C285E00E9484023C
:100FF00061E0892B09F060E085E00E94AD02C9C282
:10100000E091A303F091A4038385948588974D977D
:1010100008F048C0858596850C970B9708F042C06C
:1010200083E0809305028CEB91E090930302809320
:101030000202109204020E94A900813099F50E94D8
:10104000A90081112FC0412C512C320110E0E091F8
:10105000A303F091A403908580910502891708F0FD
:1010600069C00E94A9008AA31330B9F00E94A900A8
:10107000082F133021F40E94A900081313C08AA17D
:10108000813009F04CC001110DC0440C551C661C88
:10109000771C689440F81F5FDACF0E94A9002AA14C
:1010A000281721F38091FE01823608F488C0E09170
:1010B000FC01F091FD0182819381C397859708F02F
:1010C0007EC0848195814A97439708F078C020EBD1
:1010D00031E040E155E060EB71E08CE20E943203C8
:1010E000882309F46CC080E38093F8018091970312
:1010F00090919803A0919903B0919A038093F40181
:101100009093F501A093F601B093F70182E090E28D
:101110009093F3018093F20188E090E031CE9AA1A0
:101120009111C0CF013009F0BDCF440C551C661C95
:10113000771CB1CF812F90E0909395038093940317
:1011400040929703509298036092990370929A0389
:10115000242D30E0852D1432F8F480E88093960336
:101160003093910320939003852D90E090938F030B
:1011700080938E0360FE03C088E880939603818588
:10118000928583379A4028F48091960381608093FA
:1011900096038FE090E0C8CE90E89093960357FEB8
:1011A00003C098E8909396033093910320939003A3
:1011B0008F7790E090938F0380938E03E0CF8091A0
:1011C000FE018C33E1F5E091FC01F091FD0182819B
:1011D0009381865891098D35910588F58481958193
:1011E000CE978C9760F526E232E04CE256E064EF51
:1011F00071E08CE10E943203882309F1E091FC0147
:10120000F091FD01EA58FF4F80819181079708977F
:10121000B0F48091970390919803A0919903B091B5
:101220009A038093F4019093F501A093F601B09393
:10123000F7018CE18093F80185E090E0A1CD409129
:10124000FE01E091FC01F091FD0182819381423227
:1012500089F49C01285031092730310558F4DF0109
:10126000AE5BBF4F2D913C9128503109273031059D
:1012700008F45EC08D5791098735910508F46AC05E
:10128000E091FC01F091FD018281938183549109E9
:101290008F9780F48091FE01843009F094C084819E
:1012A00095818197489730F48681978108970897B0
:1012B00008F4B5C0E091A303F091A40380858232C5
:1012C00009F0C1C0E091FC01F091FD0182819381A0
:1012D0000497059708F0B7C0848195810B970A970A
:1012E00008F0B1C02CE033E04CE157E064E071E07D
:1012F0008FE00E943203882309F4A5C080919703F0
:1013000090919803A0919903B0919A038093F4016E
:101310009093F501A093F601B093F7018FE08093CD
:10132000F801E2E0F0E0F093F101E093F00186C013
:101330001092F801C092F401D092F501E092F6010A
:10134000F092F70181E08093960330928D03209212
:101350008C03FCCD443208F493CF84819581CE97E1
:101360008C9708F08DCF2EE032E04AE256E06EE036
:1013700072E080E10E943203882309F481CFE0917A
:10138000FC01F091FD01EA5BFF4F8081918108979C
:10139000079708F075CF8091970390919803A091DB
:1013A0009903B0919A038093F4019093F501A0936F
:1013B000F601B093F70180E18093F8013092F101DA
:1013C0002092F001C2CF843408F474CF84819581D7
:1013D000825491098F9708F06DCF20E332E040E905
:1013E00056E060E372E080E20E943203882309F451
:1013F00061CF8091970390919803A0919903B09148
:101400009A038093F4019093F501A093F601B093B1
:10141000F70180E28093F80180E190E0B1CC109276
:10142000F801C092F401D092F501E092F601F09239
:10143000F70181E080939603E0E1F0E0F0938D0303
:10144000E0938C0383CD0091FE01063008F486C141
:10145000E091FC01F091FD01329625EC3DE94CE173
:1014600051E813E08AE0682E848195816191719141
:10147000689E2001699E500C1124DB01AA0FBB1F3E
:10148000AA0FBB1FAA0FBB1F712C4A165B0688F060
:10149000669ED001679EB00D112463E0880F991FEE
:1014A0006A95E1F777247394A817B90710F482E0DE
:1014B000782E63E971E080E091E00E94B70C9B0117
:1014C000AC0127251F5F0113CFCF2093F401309388
:1014D000F5014093F6015093F70180E28093F80103
:1014E0001092F1011092F00110928D0310928C0372
:1014F0002DCD873E28E192072FEFA207B10581F499
:101500002091EE013091EF01232B09F044CD209181
:10151000EC013091ED01F901E851FE4F42E334CD89
:101520008538EAE79E07EFEFAE07B10509F0E2C1A3
:101530002091EE013091EF01232B79F42091EC0101
:101540003091ED01F901E851FE4F43E340832F5FF5
:101550003F4F3093ED012093EC018D3B22E4920745
:101560002FEFA207B10509F05DC18091EE019091C6
:10157000EF01892B71F48091EC019091ED01FC0158
:10158000E851FE4F27E3208301969093ED0180936D
:10159000EC018091F4019091F501A091F601B091D8
:1015A000F701873E9841AF4FB10581F48091EE017C
:1015B0009091EF01019751F486E00E94840261E06E
:1015C000892B09F060E086E00E94AD028091F40171
:1015D0009091F501A091F601B091F70185389A47F5
:1015E000AF4FB10581F48091EE019091EF01019729
:1015F00051F487E00E94840261E0892B09F060E0E9
:1016000087E00E94AD028091F4019091F501A091D4
:10161000F601B091F7018F3E9041AF4FB10581F4D3
:101620008091EE019091EF01019751F488E00E94C2
:10163000840261E0892B09F060E088E00E94AD023D
:101640008091F4019091F501A091F601B091F7011C
:10165000873C9843AF4FB10581F48091EE019091A2
:10166000EF01019751F489E00E94840261E0892B27
:1016700009F060E089E00E94AD028091EC01909158
:10168000ED0104970CF46AC08091E801813309F000
:101690000EC18091E901813309F009C18091EA010D
:1016A000823309F004C18091EB01823309F0FFC05D
:1016B00081EB91E00E94C20381E090E09093EF0102
:1016C0008093EE0184E00E94840261E0892B09F09E
:1016D00060E084E00E94AD028FB7F8944090E00192
:1016E0005090E1016090E2017090E3018FBF409261
:1016F000E4015092E5016092E6017092E70177FE05
:10170000C0C06DE286E092E00E94EE0122273327FE
:10171000A901241935094609570919A28E010F5D3F
:101720001F4FCA01B901A50194010E94C70C605D59
:10173000F80162938F01211531054105510589F7A3
:101740000115110519F0C8010E94B50382E191E06D
:101750000E94B5031092ED011092EC018091A3025A
:10176000833011F41092A3022FB7F8948091E00116
:101770009091E101A091E201B091E3012FBF40916E
:10178000E4015091E5016091E6017091E701841B4D
:10179000950BA60BB70B81319742A105B105D4F08B
:1017A0008091EE019091EF010197A1F460E084E057
:1017B0000E94AD0260E082E00E94AD0260E083E042
:1017C0000E94AD021092EF011092EE011092ED0115
:1017D0001092EC0164E670E080E090E00E9400036B
:1017E00080E090E0892B09F42CCA0E94B80188237C
:1017F00009F424CA0E94000021CA2091EE01309110
:10180000EF01232B79F42091EC013091ED01F901E6
:10181000E851FE4F44E340832F5F3F4F3093ED018B
:101820002093EC01853BEAE49E07EFEFAE07B1059C
:10183000C1F08D3AF2E59F07FFEFAF07B10509F060
:101840007EC08091EE019091EF01892B09F0A1CE2D
:101850008091EC019091ED01FC01E851FE4F29E3EC
:1018600092CE8091EE019091EF01892B09F091CEFB
:101870008091EC019091ED01FC01E851FE4F28E3CD
:1018800082CE19A28E010F5D1F4FC301B201A501C7
:1018900094010E94C70C29013A01605DF80162932E
:1018A0008F01411451046104710479F749CF82EC2E
:1018B00091E00E94C2031092EF011092EE0182E0CB
:1018C0000E94840261E0892B09F060E082E00E94BE
:1018D000AD0268EB7BE080E090E00E94000382E0D4
:1018E0000E94840261E0892B09F060E082E00E949E
:1018F000AD0230CF8F3E20E192072FEFA207B10556
:1019000009F47BCF873CE8E39E07EFEFAE07B10514
:1019100009F041CB2091EE013091EF01232B79F4B6
:101920002091EC013091ED01F901E851FE4F45E3C2
:1019300040832F5F3F4F3093ED012093EC018739B7
:1019400028E692072FEFA207B10509F041CB80915D
:10195000EE019091EF01892B09F01BCE8091EC01F3
:101960009091ED01FC01E851FE4F20E30CCEDB012C
:101970008F939F930E94E90CBF91AF91A29F800D1E
:10198000911DA39F900DB29F900D11240895A1E287
:101990001A2EAA1BBB1BFD010DC0AA1FBB1FEE1FE9
:1019A000FF1FA217B307E407F50720F0A21BB30B34
:1019B000E40BF50B661F771F881F991F1A9469F7B0
:1019C00060957095809590959B01AC01BD01CF010C
:1019D00008950E94F40CA59F900DB49F900DA49FB4
:1019E000800D911D11240895A29FB001B39FC001E5
:1019F000A39F700D811D1124911DB29F700D811D3B
:101A00001124911D0895AA1BBB1B51E107C0AA1FF9
:101A1000BB1FA617B70710F0A61BB70B881F991F8F
:101A20005A95A9F780959095BC01CD010895EE0FC8
:0E1A3000FF1F0590F491E02D0994F894FFCF6C
:101A3E0000000000EE014E017B013B02AC018A0169
:101A4E009E010D0A005468652066756E6374696F99
:101A5E006E206465636F64652826726573756C7499
:101A6E0073292920697320646570726563617465DA
:101A7E006420616E64206D6179206E6F7420776FC3
:101A8E00726B2061732065787065637465642120C4
:101A9E004A75737420757365206465636F64652879
:101AAE002920776974686F75742061207061726186
:101ABE006D6574657220616E64204972526563654E
:101ACE00697665722E6465636F646564495244611C
:101ADE0074612E3C6669656C646E616D653E202E88
:101AEE0000434C4156452041434550544144412EFC
:101AFE002E004572726F72207675656C7661206469
:0A1B0E0065206E7565766F2E0000ED
:00000001FF
